{
  "contractName": "SportTweet",
  "abi": [
    {
      "inputs": [],
      "stateMutability": "nonpayable",
      "type": "constructor"
    },
    {
      "inputs": [],
      "name": "likeCount",
      "outputs": [
        {
          "internalType": "uint256",
          "name": "",
          "type": "uint256"
        }
      ],
      "stateMutability": "view",
      "type": "function",
      "constant": true
    },
    {
      "inputs": [
        {
          "internalType": "uint256",
          "name": "",
          "type": "uint256"
        }
      ],
      "name": "listtweet",
      "outputs": [
        {
          "internalType": "uint256",
          "name": "id",
          "type": "uint256"
        },
        {
          "internalType": "string",
          "name": "content",
          "type": "string"
        },
        {
          "internalType": "bool",
          "name": "like",
          "type": "bool"
        },
        {
          "internalType": "bool",
          "name": "deleted",
          "type": "bool"
        }
      ],
      "stateMutability": "view",
      "type": "function",
      "constant": true
    },
    {
      "inputs": [
        {
          "internalType": "uint256",
          "name": "",
          "type": "uint256"
        }
      ],
      "name": "sporttweet",
      "outputs": [
        {
          "internalType": "uint256",
          "name": "id",
          "type": "uint256"
        },
        {
          "internalType": "string",
          "name": "content",
          "type": "string"
        },
        {
          "internalType": "bool",
          "name": "like",
          "type": "bool"
        },
        {
          "internalType": "bool",
          "name": "deleted",
          "type": "bool"
        }
      ],
      "stateMutability": "view",
      "type": "function",
      "constant": true
    },
    {
      "inputs": [],
      "name": "tweetCount",
      "outputs": [
        {
          "internalType": "uint256",
          "name": "",
          "type": "uint256"
        }
      ],
      "stateMutability": "view",
      "type": "function",
      "constant": true
    },
    {
      "inputs": [
        {
          "internalType": "string",
          "name": "_content",
          "type": "string"
        }
      ],
      "name": "createSportTweet",
      "outputs": [],
      "stateMutability": "nonpayable",
      "type": "function"
    },
    {
      "inputs": [
        {
          "internalType": "uint256",
          "name": "a",
          "type": "uint256"
        }
      ],
      "name": "createLikeTweet",
      "outputs": [
        {
          "internalType": "uint256",
          "name": "",
          "type": "uint256"
        }
      ],
      "stateMutability": "nonpayable",
      "type": "function"
    },
    {
      "inputs": [
        {
          "internalType": "uint256",
          "name": "a",
          "type": "uint256"
        }
      ],
      "name": "deleteTweet",
      "outputs": [],
      "stateMutability": "nonpayable",
      "type": "function"
    },
    {
      "inputs": [
        {
          "internalType": "uint256",
          "name": "a",
          "type": "uint256"
        }
      ],
      "name": "getTweet",
      "outputs": [],
      "stateMutability": "nonpayable",
      "type": "function"
    }
  ],
  "bytecode": "0x608060405260008055600060015534801561001957600080fd5b5061003b6040518060600160405280603781526020016107ba60379139610040565b6101d3565b60008054908061004f836101ac565b9091555050604080516080810182526000805480835260208084018681528486018490526060850184905291835260028152939091208251815590518051929391926100a192600185019201906100d8565b5060408201516002909101805460609093015115156101000261ff001992151560ff19909416939093179190911691909117905550565b8280546100e490610171565b90600052602060002090601f016020900481019282610106576000855561014c565b82601f1061011f57805160ff191683800117855561014c565b8280016001018555821561014c579182015b8281111561014c578251825591602001919060010190610131565b5061015892915061015c565b5090565b5b80821115610158576000815560010161015d565b60028104600182168061018557607f821691505b602082108114156101a657634e487b7160e01b600052602260045260246000fd5b50919050565b60006000198214156101cc57634e487b7160e01b81526011600452602481fd5b5060010190565b6105d8806101e26000396000f3fe608060405234801561001057600080fd5b50600436106100885760003560e01c80637d3f97771161005b5780637d3f9777146100e6578063a89c902b14610109578063c3ad5ecb1461011c578063e5a0af3d1461012f57610088565b80630597b3911461008d5780633afde6f3146100b65780634a7782b3146100cb5780635775912a146100d3575b600080fd5b6100a061009b36600461048b565b610137565b6040516100ad91906104a9565b60405180910390f35b6100c96100c43660046103ea565b610172565b005b6100a061020a565b6100c96100e136600461048b565b610210565b6100f96100f436600461048b565b610241565b6040516100ad94939291906104b2565b6100f961011736600461048b565b61030b565b6100c961012a36600461048b565b61032d565b6100a0610330565b600180546000918261014883610565565b909155505050600090815260026020819052604090912001805460ff191660019081179091555490565b60008054908061018183610565565b9091555050604080516080810182526000805480835260208084018681528486018490526060850184905291835260028152939091208251815590518051929391926101d39260018501920190610336565b5060408201516002909101805460609093015115156101000261ff001992151560ff19909416939093179190911691909117905550565b60005481565b60008054908061021f83610565565b9091555050600090815260026020819052604090912001805461ff0019169055565b6003818154811061025157600080fd5b600091825260209091206003909102018054600182018054919350906102769061052a565b80601f01602080910402602001604051908101604052809291908181526020018280546102a29061052a565b80156102ef5780601f106102c4576101008083540402835291602001916102ef565b820191906000526020600020905b8154815290600101906020018083116102d257829003601f168201915b5050506002909301549192505060ff8082169161010090041684565b600260205260009081526040902080546001820180549192916102769061052a565b50565b60015481565b8280546103429061052a565b90600052602060002090601f01602090048101928261036457600085556103aa565b82601f1061037d57805160ff19168380011785556103aa565b828001600101855582156103aa579182015b828111156103aa57825182559160200191906001019061038f565b506103b69291506103d5565b5090565b828111156103aa5782548255916001019190600101906103ba565b5b808211156103b657600081556001016103d6565b600060208083850312156103fc578182fd5b823567ffffffffffffffff80821115610413578384fd5b818501915085601f830112610426578384fd5b8135818111156104385761043861058c565b604051601f8201601f191681018501838111828210171561045b5761045b61058c565b6040528181528382018501881015610471578586fd5b818585018683013790810190930193909352509392505050565b60006020828403121561049c578081fd5b5035919050565b15159052565b90815260200190565b600085825260206080818401528551806080850152825b818110156104e55787810183015185820160a0015282016104c9565b818111156104f6578360a083870101525b50601f01601f1916830160a0019150610514905060408301856104a3565b61052160608301846104a3565b95945050505050565b60028104600182168061053e57607f821691505b6020821081141561055f57634e487b7160e01b600052602260045260246000fd5b50919050565b600060001982141561058557634e487b7160e01b81526011600452602481fd5b5060010190565b634e487b7160e01b600052604160045260246000fdfea2646970667358221220c30ce39b9c90fadf302b1089e294935edeaeffab2b9598418b9b72759386b8c364736f6c6343000800003345746f6f2066696c7320697320746865206265737420666f6f7462616c6c657220696e2063616d65726f756e2073696e63652031393938",
  "immutableReferences": {},
  "source": "// SPDX-License-Identifier: MIT\r\npragma solidity >=0.8.0 <0.9.0;\r\n\r\ncontract SportTweet{\r\n    uint public tweetCount = 0;\r\n    uint public likeCount = 0;\r\n    struct Sportweet{\r\n        uint id;\r\n        string content;\r\n        bool like;\r\n        bool deleted;\r\n    }\r\n    mapping(uint => Sportweet) public sporttweet;\r\n    Sportweet[] public listtweet;\r\n\r\n    constructor() public{\r\n        createSportTweet(\"Etoo fils is the best footballer in cameroun since 1998\");\r\n    }\r\n\r\n\r\n    function createSportTweet(string memory _content) public{\r\n        tweetCount++;\r\n        sporttweet[tweetCount] = Sportweet(tweetCount, _content, false,false);\r\n    }\r\n\r\n    function createLikeTweet(uint a) public returns(uint){\r\n        likeCount++;\r\n        Sportweet storage tweet = sporttweet[a];\r\n        tweet.like = true;\r\n        return(likeCount);\r\n    }\r\n\r\n    function deleteTweet(uint a) public{\r\n        tweetCount++;\r\n        Sportweet storage tweet = sporttweet[a];\r\n        if (tweet.deleted = false){\r\n            tweet.deleted = true;\r\n            sporttweet[tweetCount] = tweet;\r\n        }\r\n    }\r\n    function getTweet(uint a) public {\r\n\r\n    }\r\n}\r\n",
  "sourcePath": "C:/Users/LENOVO X1 Carbone/OneDrive - EPITA/Bureau/wkspace/smcontract/contracts/SportTweet.sol",
  "compiler": {
    "name": "solc",
    "version": "0.8.0+commit.c7dfd78e.Emscripten.clang"
  },
  "schemaVersion": "3.4.0",
  "updatedAt": "2021-05-13T23:54:50.068Z",
  "networkType": "ethereum",
  "devdoc": {
    "kind": "dev",
    "methods": {},
    "version": 1
  },
  "userdoc": {
    "kind": "user",
    "methods": {},
    "version": 1
  }
}