{
  "contractName": "SportTweet",
  "abi": [
    {
      "inputs": [],
      "stateMutability": "nonpayable",
      "type": "constructor"
    },
    {
      "inputs": [],
      "name": "likeCount",
      "outputs": [
        {
          "internalType": "uint256",
          "name": "",
          "type": "uint256"
        }
      ],
      "stateMutability": "view",
      "type": "function"
    },
    {
      "inputs": [
        {
          "internalType": "uint256",
          "name": "",
          "type": "uint256"
        }
      ],
      "name": "sporttweet",
      "outputs": [
        {
          "internalType": "uint256",
          "name": "id",
          "type": "uint256"
        },
        {
          "internalType": "string",
          "name": "content",
          "type": "string"
        },
        {
          "internalType": "bool",
          "name": "like",
          "type": "bool"
        }
      ],
      "stateMutability": "view",
      "type": "function"
    },
    {
      "inputs": [],
      "name": "tweetCount",
      "outputs": [
        {
          "internalType": "uint256",
          "name": "",
          "type": "uint256"
        }
      ],
      "stateMutability": "view",
      "type": "function"
    },
    {
      "inputs": [
        {
          "internalType": "string",
          "name": "_content",
          "type": "string"
        }
      ],
      "name": "createSportTweet",
      "outputs": [],
      "stateMutability": "nonpayable",
      "type": "function"
    },
    {
      "inputs": [
        {
          "internalType": "uint256",
          "name": "a",
          "type": "uint256"
        }
      ],
      "name": "createLikeTweet",
      "outputs": [
        {
          "internalType": "uint256",
          "name": "",
          "type": "uint256"
        }
      ],
      "stateMutability": "nonpayable",
      "type": "function"
    }
  ],
  "bytecode": "0x608060405260008055600060015534801561001957600080fd5b5061003b60405180606001604052806037815260200161066960379139610040565b6101b4565b60008054908061004f8361018d565b909155505060408051606081018252600080548083526020808401868152848601849052918352600281529390912082518155905180519293919261009a92600185019201906100b9565b50604091909101516002909101805460ff191691151591909117905550565b8280546100c590610152565b90600052602060002090601f0160209004810192826100e7576000855561012d565b82601f1061010057805160ff191683800117855561012d565b8280016001018555821561012d579182015b8281111561012d578251825591602001919060010190610112565b5061013992915061013d565b5090565b5b80821115610139576000815560010161013e565b60028104600182168061016657607f821691505b6020821081141561018757634e487b7160e01b600052602260045260246000fd5b50919050565b60006000198214156101ad57634e487b7160e01b81526011600452602481fd5b5060010190565b6104a6806101c36000396000f3fe608060405234801561001057600080fd5b50600436106100575760003560e01c80630597b3911461005c5780633afde6f3146100855780634a7782b31461009a578063a89c902b146100a2578063e5a0af3d146100c4575b600080fd5b61006f61006a366004610374565b6100cc565b60405161007c919061038c565b60405180910390f35b6100986100933660046102d3565b610107565b005b61006f610180565b6100b56100b0366004610374565b610186565b60405161007c93929190610395565b61006f610234565b60018054600091826100dd83610433565b909155505050600090815260026020819052604090912001805460ff191660019081179091555490565b60008054908061011683610433565b9091555050604080516060810182526000805480835260208084018681528486018490529183526002815293909120825181559051805192939192610161926001850192019061023a565b50604091909101516002909101805460ff191691151591909117905550565b60005481565b600260205260009081526040902080546001820180549192916101a8906103f8565b80601f01602080910402602001604051908101604052809291908181526020018280546101d4906103f8565b80156102215780601f106101f657610100808354040283529160200191610221565b820191906000526020600020905b81548152906001019060200180831161020457829003601f168201915b5050506002909301549192505060ff1683565b60015481565b828054610246906103f8565b90600052602060002090601f01602090048101928261026857600085556102ae565b82601f1061028157805160ff19168380011785556102ae565b828001600101855582156102ae579182015b828111156102ae578251825591602001919060010190610293565b506102ba9291506102be565b5090565b5b808211156102ba57600081556001016102bf565b600060208083850312156102e5578182fd5b823567ffffffffffffffff808211156102fc578384fd5b818501915085601f83011261030f578384fd5b8135818111156103215761032161045a565b604051601f8201601f19168101850183811182821017156103445761034461045a565b604052818152838201850188101561035a578586fd5b818585018683013790810190930193909352509392505050565b600060208284031215610385578081fd5b5035919050565b90815260200190565b600084825260206060818401528451806060850152825b818110156103c8578681018301518582016080015282016103ac565b818111156103d95783608083870101525b5093151560408401525050601f91909101601f19160160800192915050565b60028104600182168061040c57607f821691505b6020821081141561042d57634e487b7160e01b600052602260045260246000fd5b50919050565b600060001982141561045357634e487b7160e01b81526011600452602481fd5b5060010190565b634e487b7160e01b600052604160045260246000fdfea26469706673582212204316a88a7b4b5421e8b32945bd33e6d50afcff71f1ebb302c28c37caa3eed7e964736f6c6343000800003345746f6f2066696c7320697320746865206265737420666f6f7462616c6c657220696e2063616d65726f756e2073696e63652031393938",
  "immutableReferences": {},
  "source": "// SPDX-License-Identifier: MIT\r\npragma solidity >=0.8.0 <0.9.0;\r\n\r\ncontract SportTweet{\r\n    uint public tweetCount = 0;\r\n    uint public likeCount = 0;\r\n    struct Sportweet{\r\n        uint id;\r\n        string content;\r\n        bool like;\r\n    }\r\n    mapping(uint => Sportweet) public sporttweet;\r\n\r\n    constructor() public{\r\n        createSportTweet(\"Etoo fils is the best footballer in cameroun since 1998\");\r\n    }\r\n\r\n\r\n    function createSportTweet(string memory _content) public{\r\n        tweetCount++;\r\n        sporttweet[tweetCount] = Sportweet(tweetCount, _content, false);\r\n    }\r\n\r\n    function createLikeTweet(uint a) public returns(uint){\r\n        likeCount++;\r\n        Sportweet storage tweet = sporttweet[a];\r\n        tweet.like = true;\r\n        return(likeCount);\r\n    }\r\n}\r\n",
  "sourcePath": "C:/Users/gaya3/workspace/ng/smcontract/contracts/SportTweet.sol",
  "compiler": {
    "name": "solc",
    "version": "0.8.0+commit.c7dfd78e.Emscripten.clang"
  },
  "schemaVersion": "3.4.0",
  "updatedAt": "2021-05-18T19:11:55.750Z",
  "devdoc": {
    "kind": "dev",
    "methods": {},
    "version": 1
  },
  "userdoc": {
    "kind": "user",
    "methods": {},
    "version": 1
  }
}